1SGHSBC141086827001E0500002800000000209796.0920200331APO                                                                              1
2         001    0000000003151.93        UOVBSGSGXXX1093042064                                ACE MARKETING SERVICES PTE LTD                                                                                                                                                 SUPP                                   RISIS -  INV-200267 INV-200268 INV-200269                                                                
2         002    0000000002703.35        BKCHSGSGXXX650090000272057                           ALLIED FREIGHT SERVICES PTE LTD                                                                                                                                                SUPP                                   RISIS -  G55818 55817                                                                                    
2         003    0000000000032.10        DBSSSGSGXXX0060105700                                ALPHA PLUS GIFTS & SOUVENIRS PTE LTD                                                                                                                                           SUPP                                   RISIS -  00094311                                                                                        
2         004    0000000002896.23        OCBCSGSGXXX683402903001                              BUGS & BUDS                                                                                                                                                                    SUPP                                   RISIS -  2020/0207 2020/0206                                                                             
2         005    0000000005947.72        DBSSSGSGXXX0129022241                                BULLARUM PTE. LTD.                                                                                                                                                             SUPP                                   RISIS -  377/2020 SG 378/2020 SG 379/2020 SG                                                             
2         006    0000000000845.35        MHCBSGSGXXX10849200094                               CANON SINGAPORE PTE LTD                                                                                                                                                        SUPP                                   RISIS -  8120045314                                                                                      
2         007    0000000005369.73        DBSSSGSGXXX0339027839                                CHALO PTE LTD                                                                                                                                                                  SUPP                                   RISIS -  21705 21692 21693 21694 21695 21696                                                             
2         008    0000000003494.13        OCBCSGSGXXX550068688001                              DREAM STUDIOS PTE LTD                                                                                                                                                          SUPP                                   RISIS -  O2002110166 O20021100167 O20021100169                                                           
2         009    0000000025600.06        OCBCSGSGXXX588111831001                              GOLDWOOD TRADING PTE LTD                                                                                                                                                       SUPP                                   RISIS -  GTI-200140 GTI-200159 GTI-200160 GTI-200188 GTI-200189 GTI-200214 GTI-200215 CRN-200007 CRN-2000
2         010    0000000012592.22        OCBCSGSGXXX529829152001                              HUARONG ARTS & CRAFTS PTE LTD                                                                                                                                                  SUPP                                   RISIS -  2001-2822 2001-2825 2001-2826 2001-2827 2002-2831 2002-2837                                     
2         011    0000000000570.00        MBBESGS2XXX04221064559                               IMPRESSIVE PRINTING & TRADING                                                                                                                                                  SUPP                                   RISIS -  8419                                                                                            
2         012    0000000000101.12        UOVBSGSGXXX2043147228                                JOAQUIM FLORIST & GIFTS PTE LTD                                                                                                                                                SUPP                                   RISIS -  960759                                                                                          
2         013    0000000004333.50        OCBCSGSGXXX512085382001                              KELVIN CHIA PARTNERSHIP                                                                                                                                                        SUPP                                   RISIS -  204167                                                                                          
2         014    0000000030045.71        UOVBSGSGXXX4013145665                                LA BELLE COLLECTION PTE LTD                                                                                                                                                    SUPP                                   RISIS -  LB14968 LB14928 LB14929 LB14930 LB14931 LB14932                                                 
2         015    0000000003958.70        DBSSSGSGXXX0260013763                                LAPAN SATU INVESTMENT PTE LTD                                                                                                                                                  SUPP                                   RISIS -  80009052 80009053 80009054                                                                      
2         016    0000000003049.50        OCBCSGSGXXX501180202001                              LAM THYE HANG PTE LTD                                                                                                                                                          SUPP                                   RISIS -  A0006077                                                                                        
2         017    0000000034678.86        CIBBSGSGXXX2000192284                                LUM CHANG PROPERTY INVESTMENTS PTE LTD                                                                                                                                         SUPP                                   RISIS -  LCPI2004006 AXRON-PARKING-APR20                                                                 
2         018    0000000000852.60        DBSSSGSGXXX0080122687                                MHC MEDICAL NETWORK PTE LTD                                                                                                                                                    SUPP                                   RISIS -  IN2002/MA/01511 IN2002/MA/02448                                                                 
2         019    0000000021818.82        ANZBSGSXXXX19017300001                               MARSH (SINGAPORE) PTE LTD                                                                                                                                                      SUPP                                   RISIS -  I01310366                                                                                       
2         020    0000000030427.43        HSBCSGSGXXX052377470001                              MERCER HEALTH & BENEFITS (SINGAPORE) PTE LTD                                                                                                                                   SUPP                                   RISIS -  00056086 00056091 00056090 00063095 00062801 00063100 00062584 00062800 00062814                
2         021    0000000000719.99        UOVBSGSGXXX3473069197                                MB ART                                                                                                                                                                         SUPP                                   RISIS -  PARAGON/JAN10 GNS/JAN20                                                                         
2         022    0000000004367.79        OCBCSGSGXXX550732283001                              NKS TECHNOLOGIES PTE. LTD.                                                                                                                                                     SUPP                                   RISIS -  NKS-20203412 NKS-20203417 NKS-20203418 NKS-20203421 NKS-20203413 NKS-20203414 NKS-20203415      
2         023    0000000001883.35        OCBCSGSGXXX647153121001                              ONE GALLERY PTE. LTD.                                                                                                                                                          SUPP                                   RISIS -  INV-RISIS202031011                                                                              
2         024    0000000003798.50        OCBCSGSGXXX501508196001                              ROYCEMEDIA TECHNOLOGIES PTE LTD                                                                                                                                                SUPP                                   RISIS -  02002062 02002069                                                                               
2         025    0000000003028.20        UOVBSGSGXXX3273001806                                SHEVRON PTE LTD                                                                                                                                                                SUPP                                   RISIS -  20/0157 20/0158 20/0159 20/0160 DN17143                                                         
2         026    0000000003438.12        OCBCSGSGXXX619405129001                              TAKE CARE MARKETING                                                                                                                                                            SUPP                                   RISIS -  2001                                                                                            
2         027    0000000000075.00        HSBCSGSGXXX141011783001                              TOKIO MARINE INSURANCE SINGAPORE LTD                                                                                                                                           SUPP                                   RISIS -  M1929435                                       